{
  "address": "0x325E0ee206e0F26F094628f2f11eaf82bc5F2862",
  "abi": [
    {
      "inputs": [
        {
          "internalType": "address",
          "name": "tokenAddr",
          "type": "address"
        }
      ],
      "stateMutability": "nonpayable",
      "type": "constructor"
    },
    {
      "anonymous": false,
      "inputs": [
        {
          "indexed": false,
          "internalType": "address",
          "name": "swapper",
          "type": "address"
        },
        {
          "indexed": false,
          "internalType": "uint256",
          "name": "tokenOutput",
          "type": "uint256"
        },
        {
          "indexed": false,
          "internalType": "uint256",
          "name": "ethInput",
          "type": "uint256"
        }
      ],
      "name": "EthToTokenSwap",
      "type": "event"
    },
    {
      "anonymous": false,
      "inputs": [
        {
          "indexed": false,
          "internalType": "address",
          "name": "liquidityProvider",
          "type": "address"
        },
        {
          "indexed": false,
          "internalType": "uint256",
          "name": "liquidityMinted",
          "type": "uint256"
        },
        {
          "indexed": false,
          "internalType": "uint256",
          "name": "ethInput",
          "type": "uint256"
        },
        {
          "indexed": false,
          "internalType": "uint256",
          "name": "tokensInput",
          "type": "uint256"
        }
      ],
      "name": "LiquidityProvided",
      "type": "event"
    },
    {
      "anonymous": false,
      "inputs": [
        {
          "indexed": false,
          "internalType": "address",
          "name": "liquidityRemover",
          "type": "address"
        },
        {
          "indexed": false,
          "internalType": "uint256",
          "name": "liquidityWithdrawn",
          "type": "uint256"
        },
        {
          "indexed": false,
          "internalType": "uint256",
          "name": "tokensOutput",
          "type": "uint256"
        },
        {
          "indexed": false,
          "internalType": "uint256",
          "name": "ethOutput",
          "type": "uint256"
        }
      ],
      "name": "LiquidityRemoved",
      "type": "event"
    },
    {
      "anonymous": false,
      "inputs": [
        {
          "indexed": false,
          "internalType": "address",
          "name": "swapper",
          "type": "address"
        },
        {
          "indexed": false,
          "internalType": "uint256",
          "name": "tokensInput",
          "type": "uint256"
        },
        {
          "indexed": false,
          "internalType": "uint256",
          "name": "ethOutput",
          "type": "uint256"
        }
      ],
      "name": "TokenToEthSwap",
      "type": "event"
    },
    {
      "inputs": [],
      "name": "deposit",
      "outputs": [
        {
          "internalType": "uint256",
          "name": "tokensDeposited",
          "type": "uint256"
        }
      ],
      "stateMutability": "payable",
      "type": "function"
    },
    {
      "inputs": [],
      "name": "ethToToken",
      "outputs": [
        {
          "internalType": "uint256",
          "name": "tokenOutput",
          "type": "uint256"
        }
      ],
      "stateMutability": "payable",
      "type": "function"
    },
    {
      "inputs": [
        {
          "internalType": "address",
          "name": "lp",
          "type": "address"
        }
      ],
      "name": "getLiquidity",
      "outputs": [
        {
          "internalType": "uint256",
          "name": "",
          "type": "uint256"
        }
      ],
      "stateMutability": "view",
      "type": "function"
    },
    {
      "inputs": [
        {
          "internalType": "uint256",
          "name": "tokens",
          "type": "uint256"
        }
      ],
      "name": "init",
      "outputs": [
        {
          "internalType": "uint256",
          "name": "",
          "type": "uint256"
        }
      ],
      "stateMutability": "payable",
      "type": "function"
    },
    {
      "inputs": [
        {
          "internalType": "address",
          "name": "user",
          "type": "address"
        }
      ],
      "name": "liquidity",
      "outputs": [
        {
          "internalType": "uint256",
          "name": "liquidity",
          "type": "uint256"
        }
      ],
      "stateMutability": "view",
      "type": "function"
    },
    {
      "inputs": [
        {
          "internalType": "uint256",
          "name": "xInput",
          "type": "uint256"
        },
        {
          "internalType": "uint256",
          "name": "xReserves",
          "type": "uint256"
        },
        {
          "internalType": "uint256",
          "name": "yReserves",
          "type": "uint256"
        }
      ],
      "name": "price",
      "outputs": [
        {
          "internalType": "uint256",
          "name": "yOutput",
          "type": "uint256"
        }
      ],
      "stateMutability": "pure",
      "type": "function"
    },
    {
      "inputs": [
        {
          "internalType": "uint256",
          "name": "tokenInput",
          "type": "uint256"
        }
      ],
      "name": "tokenToEth",
      "outputs": [
        {
          "internalType": "uint256",
          "name": "ethOutput",
          "type": "uint256"
        }
      ],
      "stateMutability": "nonpayable",
      "type": "function"
    },
    {
      "inputs": [],
      "name": "totalLiquidity",
      "outputs": [
        {
          "internalType": "uint256",
          "name": "",
          "type": "uint256"
        }
      ],
      "stateMutability": "view",
      "type": "function"
    },
    {
      "inputs": [
        {
          "internalType": "uint256",
          "name": "amount",
          "type": "uint256"
        }
      ],
      "name": "withdraw",
      "outputs": [
        {
          "internalType": "uint256",
          "name": "ethAmount",
          "type": "uint256"
        },
        {
          "internalType": "uint256",
          "name": "tokenAmount",
          "type": "uint256"
        }
      ],
      "stateMutability": "nonpayable",
      "type": "function"
    }
  ],
  "transactionHash": "0x822def1cf8750431141c142d9e0db8cb8c46a1fd2ad34938f177ca1d14bedf73",
  "args": [
    "0xb443E83E38a388B67D7520ee568E8b4F68700c6C"
  ],
  "numDeployments": 1,
  "solcInputHash": "b5782b02b7e57e3c06a89ec55ee278c1",
  "bytecode": "0x608060405234801561001057600080fd5b5060405161120238038061120283398101604081905261002f91610054565b600080546001600160a01b0319166001600160a01b0392909216919091179055610084565b60006020828403121561006657600080fd5b81516001600160a01b038116811461007d57600080fd5b9392505050565b61116f806100936000396000f3fe6080604052600436106100865760003560e01c8063789770f411610059578063789770f414610129578063a747b93b14610131578063b7b0422d14610167578063b8c876b11461017a578063d0e30db0146101a757600080fd5b806315770f921461008b5780632071a9f4146100b45780632e1a7d4d146100d457806370b2a30f14610109575b600080fd5b34801561009757600080fd5b506100a160015481565b6040519081526020015b60405180910390f35b3480156100c057600080fd5b506100a16100cf36600461100e565b6101af565b3480156100e057600080fd5b506100f46100ef36600461103a565b6101fe565b604080519283526020830191909152016100ab565b34801561011557600080fd5b506100a161012436600461103a565b61059b565b6100a1610861565b34801561013d57600080fd5b506100a161014c366004611053565b6001600160a01b031660009081526002602052604090205490565b6100a161017536600461103a565b610a7b565b34801561018657600080fd5b506100a1610195366004611053565b60026020526000908152604090205481565b6100a1610bd5565b6000806101be856103e5611099565b905060006101cc8483611099565b90506000826101dd876103e8611099565b6101e791906110b6565b90506101f381836110c9565b979650505050505050565b6000806000831161026c5760405162461bcd60e51b815260206004820152602d60248201527f4445583a207769746864726177202d20616d6f756e74206d757374206265206760448201526c0726561746572207468616e203609c1b60648201526084015b60405180910390fd5b336000908152600260205260409020548311156102da5760405162461bcd60e51b815260206004820152602660248201527f4465783a207769746864726177202d20696e73756666696369656e74206c697160448201526575696469747960d01b6064820152608401610263565b600080546040516370a0823160e01b81523060048201526001600160a01b03909116906370a0823190602401602060405180830381865afa158015610323573d6000803e3d6000fd5b505050506040513d601f19601f8201168201806040525081019061034791906110eb565b60015490915047906103598287611099565b61036391906110c9565b6001549094506103738387611099565b61037d91906110c9565b336000908152600260205260408120805492955087929091906103a1908490611104565b9250508190555084600160008282546103ba9190611104565b9091555050604051600090339086908381818185875af1925050503d8060008114610401576040519150601f19603f3d011682016040523d82523d6000602084013e610406565b606091505b505090508061046d5760405162461bcd60e51b815260206004820152602d60248201527f4445583a207769746864726177202d20657468207472616e736665722064696460448201526c081b9bdd081d1c985b9cd858dd609a1b6064820152608401610263565b6000805460405163a9059cbb60e01b8152336004820152602481018790526001600160a01b039091169063a9059cbb906044016020604051808303816000875af11580156104bf573d6000803e3d6000fd5b505050506040513d601f19601f820116820180604052508101906104e39190611117565b90508061054a5760405162461bcd60e51b815260206004820152602f60248201527f4445583a207769746864726177202d20746f6b656e207472616e73666572206460448201526e1a59081b9bdd081d1c985b9cd858dd608a1b6064820152608401610263565b6040805133815260208101899052908101869052606081018790527f1dc8bb69df2b8e91fbdcbfcf93d951b3f0000f085a95fe3f7946d6161439245d9060800160405180910390a150505050915091565b60008082116106085760405162461bcd60e51b815260206004820152603360248201527f4445583a20746f6b656e546f457468202d20746f6b656e496e707574206d75736044820152720742062652067726561746572207468616e203606c1b6064820152608401610263565b600080546040516370a0823160e01b81523060048201526001600160a01b03909116906370a0823190602401602060405180830381865afa158015610651573d6000803e3d6000fd5b505050506040513d601f19601f8201168201806040525081019061067591906110eb565b9050476106838483836101af565b600080546040516323b872dd60e01b81523360048201523060248201526044810188905292955090916001600160a01b03909116906323b872dd906064016020604051808303816000875af11580156106e0573d6000803e3d6000fd5b505050506040513d601f19601f820116820180604052508101906107049190611117565b9050806107675760405162461bcd60e51b815260206004820152602b60248201527f4445583a20746f6b656e546f457468202d207472616e7366657220646964206e60448201526a1bdd081d1c985b9cd858dd60aa1b6064820152608401610263565b604051600090339086908381818185875af1925050503d80600081146107a9576040519150601f19603f3d011682016040523d82523d6000602084013e6107ae565b606091505b50509050806108175760405162461bcd60e51b815260206004820152602f60248201527f4445583a20746f6b656e546f457468202d20657468207472616e73666572206460448201526e1a59081b9bdd081d1c985b9cd858dd608a1b6064820152608401610263565b60408051338152602081018890529081018690527f472303b1e7ca7d00fb77f255c0a8c577f9ca4264c0306aaed3ff18e831523a6d9060600160405180910390a150505050919050565b60008034116108cd5760405162461bcd60e51b815260206004820152603260248201527f4445583a20657468546f546f6b656e202d206d73672e76616c7565206d75737460448201527102062652067726561746572207468616e20360741b6064820152608401610263565b60006108d93447611104565b600080546040516370a0823160e01b815230600482015292935090916001600160a01b03909116906370a0823190602401602060405180830381865afa158015610927573d6000803e3d6000fd5b505050506040513d601f19601f8201168201806040525081019061094b91906110eb565b90506109583483836101af565b6000805460405163a9059cbb60e01b81523360048201526024810184905292955090916001600160a01b039091169063a9059cbb906044016020604051808303816000875af11580156109af573d6000803e3d6000fd5b505050506040513d601f19601f820116820180604052508101906109d39190611117565b905080610a365760405162461bcd60e51b815260206004820152602b60248201527f4445583a20657468546f546f6b656e202d207472616e7366657220646964206e60448201526a1bdd081d1c985b9cd858dd60aa1b6064820152608401610263565b6040805133815260208101869052348183015290517f6d4870e9281c01ea54a4420c8684ac713b77f0c590b40c4b1fbf4c6ba892ccea9181900360600190a150505090565b6000600154600014610ada5760405162461bcd60e51b815260206004820152602260248201527f4445583a20696e697420202d20616c726561647920686173206c697175696469604482015261747960f01b6064820152608401610263565b4760018190553360008181526002602052604080822093909355805492516323b872dd60e01b8152600481019290925230602483015260448201859052916001600160a01b0316906323b872dd906064016020604051808303816000875af1158015610b4a573d6000803e3d6000fd5b505050506040513d601f19601f82011682018060405250810190610b6e9190611117565b905080610bcb5760405162461bcd60e51b815260206004820152602560248201527f4445583a20696e6974202d207472616e7366657220646964206e6f74207472616044820152641b9cd858dd60da1b6064820152608401610263565b5050600154919050565b6000803411610c3e5760405162461bcd60e51b815260206004820152602f60248201527f4445583a206465706f736974202d206d73672e76616c7565206d75737420626560448201526e02067726561746572207468616e203608c1b6064820152608401610263565b6000610c4a3447611104565b600080546040516370a0823160e01b815230600482015292935090916001600160a01b03909116906370a0823190602401602060405180830381865afa158015610c98573d6000803e3d6000fd5b505050506040513d601f19601f82011682018060405250810190610cbc91906110eb565b9050600082610ccb8334611099565b610cd591906110c9565b610ce09060016110b6565b6000546040516370a0823160e01b815233600482015291925082916001600160a01b03909116906370a0823190602401602060405180830381865afa158015610d2d573d6000803e3d6000fd5b505050506040513d601f19601f82011682018060405250810190610d5191906110eb565b1015610db15760405162461bcd60e51b815260206004820152602960248201527f4445583a206465706f736974202d20696e73756666696369656e7420746f6b656044820152686e2062616c616e636560b81b6064820152608401610263565b600054604051636eb1769f60e11b815233600482015230602482015282916001600160a01b03169063dd62ed3e90604401602060405180830381865afa158015610dff573d6000803e3d6000fd5b505050506040513d601f19601f82011682018060405250810190610e2391906110eb565b1015610e855760405162461bcd60e51b815260206004820152602b60248201527f4445583a206465706f736974202d20696e73756666696369656e7420746f6b6560448201526a6e20616c6c6f77616e636560a81b6064820152608401610263565b60008360015434610e969190611099565b610ea091906110c9565b33600090815260026020526040812080549293508392909190610ec49084906110b6565b925050819055508060016000828254610edd91906110b6565b9091555050600080546040516323b872dd60e01b8152336004820152306024820152604481018590526001600160a01b03909116906323b872dd906064016020604051808303816000875af1158015610f3a573d6000803e3d6000fd5b505050506040513d601f19601f82011682018060405250810190610f5e9190611117565b905080610fbe5760405162461bcd60e51b815260206004820152602860248201527f4445583a206465706f736974202d207472616e7366657220646964206e6f74206044820152671d1c985b9cd858dd60c21b6064820152608401610263565b604080513381526020810184905234818301526060810185905290517f3bca7014f4c0ccc8016338c79f4c00e82068dbadaf4f01ca5449040fdd39f5009181900360800190a15090949350505050565b60008060006060848603121561102357600080fd5b505081359360208301359350604090920135919050565b60006020828403121561104c57600080fd5b5035919050565b60006020828403121561106557600080fd5b81356001600160a01b038116811461107c57600080fd5b9392505050565b634e487b7160e01b600052601160045260246000fd5b80820281158282048414176110b0576110b0611083565b92915050565b808201808211156110b0576110b0611083565b6000826110e657634e487b7160e01b600052601260045260246000fd5b500490565b6000602082840312156110fd57600080fd5b5051919050565b818103818111156110b0576110b0611083565b60006020828403121561112957600080fd5b8151801515811461107c57600080fdfea26469706673582212206293300b65c8ba479f98e80ffdcd93ccccf95cdfcc41a3a570eafc4ca8ecf46c64736f6c63430008140033",
  "devdoc": {
    "author": "Rahul Dindigala",
    "details": "We want to create an automatic market where our contract will hold reserves of both ETH and Balloons. These reserves will provide liquidity that allows anyone to swap between the assets.We will use a simple AMM to determine the price of the exchange. The product of the reserves must always remain constant (x * y = k).",
    "kind": "dev",
    "methods": {
      "init(uint256)": {
        "params": {
          "tokens": "amount to be transferred to DEX"
        },
        "returns": {
          "_0": "totalLiquidity is the number of LPTs minting as a result of deposits made to DEX contract NOTE: since ratio is 1:1, this is fine to initialize the totalLiquidity (wrt to balloons) as equal to eth balance of contract."
        }
      }
    },
    "title": "DEX Contract (Decentralized Exchange)",
    "version": 1
  },
  "userdoc": {
    "events": {
      "EthToTokenSwap(address,uint256,uint256)": {
        "notice": "Emitted when ethToToken() swap transacted"
      },
      "LiquidityProvided(address,uint256,uint256,uint256)": {
        "notice": "Emitted when liquidity provided to DEX and mints LPTs."
      },
      "LiquidityRemoved(address,uint256,uint256,uint256)": {
        "notice": "Emitted when liquidity removed from DEX and decreases LPT count within DEX."
      },
      "TokenToEthSwap(address,uint256,uint256)": {
        "notice": "Emitted when tokenToEth() swap transacted"
      }
    },
    "kind": "user",
    "methods": {
      "deposit()": {
        "notice": "allows deposits of $BAL and $ETH to liquidity pool NOTE: parameter is the msg.value sent with this function call. That amount is used to determine the amount of $BAL needed as well and taken from the depositor. NOTE: user has to make sure to give DEX approval to spend their tokens on their behalf by calling approve function prior to this function call. NOTE: Equal parts of both assets will be removed from the user's wallet with respect to the price outlined by the AMM."
      },
      "ethToToken()": {
        "notice": "sends Ether to DEX in exchange for $BAL"
      },
      "getLiquidity(address)": {
        "notice": "returns liquidity for a user. NOTE: this is not needed typically due to the `liquidity()` mapping variable being public and having a getter as a result. This is left though as it is used within the front end code (App.jsx). NOTE: if you are using a mapping liquidity, then you can use `return liquidity[lp]` to get the liquidity for a user. NOTE: if you will be submitting the challenge make sure to implement this function as it is used in the tests."
      },
      "init(uint256)": {
        "notice": "initializes amount of tokens that will be transferred to the DEX itself from the erc20 contract mintee (and only them based on how Balloons.sol is written). Loads contract up with both ETH and Balloons."
      },
      "price(uint256,uint256,uint256)": {
        "notice": "returns yOutput, or yDelta for xInput (or xDelta)"
      },
      "tokenToEth(uint256)": {
        "notice": "sends $BAL tokens to DEX in exchange for Ether"
      },
      "withdraw(uint256)": {
        "notice": "allows withdrawal of $BAL and $ETH from liquidity pool NOTE: with this current code, the msg caller could end up getting very little back if the liquidity is super low in the pool."
      }
    },
    "version": 1
  },
  "storageLayout": {
    "storage": [
      {
        "astId": 84,
        "contract": "contracts/DEX.sol:DEX",
        "label": "token",
        "offset": 0,
        "slot": "0",
        "type": "t_contract(IERC20)77"
      },
      {
        "astId": 86,
        "contract": "contracts/DEX.sol:DEX",
        "label": "totalLiquidity",
        "offset": 0,
        "slot": "1",
        "type": "t_uint256"
      },
      {
        "astId": 90,
        "contract": "contracts/DEX.sol:DEX",
        "label": "liquidity",
        "offset": 0,
        "slot": "2",
        "type": "t_mapping(t_address,t_uint256)"
      }
    ],
    "types": {
      "t_address": {
        "encoding": "inplace",
        "label": "address",
        "numberOfBytes": "20"
      },
      "t_contract(IERC20)77": {
        "encoding": "inplace",
        "label": "contract IERC20",
        "numberOfBytes": "20"
      },
      "t_mapping(t_address,t_uint256)": {
        "encoding": "mapping",
        "key": "t_address",
        "label": "mapping(address => uint256)",
        "numberOfBytes": "32",
        "value": "t_uint256"
      },
      "t_uint256": {
        "encoding": "inplace",
        "label": "uint256",
        "numberOfBytes": "32"
      }
    }
  }
}